{
  "address": "0x5FbDB2315678afecb367f032d93F642f64180aa3",
  "abi": [
    {
      "inputs": [],
      "stateMutability": "nonpayable",
      "type": "constructor"
    },
    {
      "inputs": [],
      "name": "closeVoting",
      "outputs": [],
      "stateMutability": "nonpayable",
      "type": "function"
    },
    {
      "inputs": [],
      "name": "getVotingOptions",
      "outputs": [
        {
          "components": [
            {
              "internalType": "uint256",
              "name": "votes",
              "type": "uint256"
            },
            {
              "internalType": "uint256",
              "name": "id",
              "type": "uint256"
            },
            {
              "internalType": "string",
              "name": "name",
              "type": "string"
            }
          ],
          "internalType": "struct MyContract.votingOption[]",
          "name": "",
          "type": "tuple[]"
        }
      ],
      "stateMutability": "view",
      "type": "function"
    },
    {
      "inputs": [],
      "name": "getWinnerName",
      "outputs": [
        {
          "internalType": "string",
          "name": "winner_",
          "type": "string"
        }
      ],
      "stateMutability": "view",
      "type": "function"
    },
    {
      "inputs": [
        {
          "internalType": "string",
          "name": "_name",
          "type": "string"
        }
      ],
      "name": "vote",
      "outputs": [],
      "stateMutability": "nonpayable",
      "type": "function"
    }
  ],
  "transactionHash": "0xe6e595c95293be75768b32b19786541e11416b8984e74d7cacd319edad5fd171",
  "args": [],
  "numDeployments": 1,
  "solcInputHash": "1ccd722d4d29b83af82c3b82612a76e4",
  "bytecode": "0x608060405234801561001057600080fd5b5033600160006101000a81548173ffffffffffffffffffffffffffffffffffffffff021916908373ffffffffffffffffffffffffffffffffffffffff1602179055506001600360006101000a81548160ff0219169083151502179055506117db8061007c6000396000f3fe608060405234801561001057600080fd5b506004361061004c5760003560e01c80632bfda5151461005157806383859cf71461006f578063c631b2921461008d578063fc36e15b14610097575b600080fd5b6100596100b3565b6040516100669190611280565b60405180910390f35b6100776102e6565b604051610084919061125e565b60405180910390f35b61009561042f565b005b6100b160048036038101906100ac9190610fe0565b6104dc565b005b6060600160009054906101000a900473ffffffffffffffffffffffffffffffffffffffff1673ffffffffffffffffffffffffffffffffffffffff163373ffffffffffffffffffffffffffffffffffffffff1614610145576040517f08c379a000000000000000000000000000000000000000000000000000000000815260040161013c90611383565b60405180910390fd5b6000805b6004805490508110156102e1578160048281548110610191577f4e487b7100000000000000000000000000000000000000000000000000000000600052603260045260246000fd5b90600052602060002090600302016000015411156102ce57600481815481106101e3577f4e487b7100000000000000000000000000000000000000000000000000000000600052603260045260246000fd5b906000526020600020906003020160000154915060048181548110610231577f4e487b7100000000000000000000000000000000000000000000000000000000600052603260045260246000fd5b9060005260206000209060030201600201805461024d9061158d565b80601f01602080910402602001604051908101604052809291908181526020018280546102799061158d565b80156102c65780601f1061029b576101008083540402835291602001916102c6565b820191906000526020600020905b8154815290600101906020018083116102a957829003601f168201915b505050505092505b80806102d9906115f0565b915050610149565b505090565b606061032c6040518060400160405280601281526020017f6f7074696f6e73206c656e6774682e2e2e3a0000000000000000000000000000815250600480549050610cd2565b6004805480602002602001604051908101604052809291908181526020016000905b82821015610426578382906000526020600020906003020160405180606001604052908160008201548152602001600182015481526020016002820180546103959061158d565b80601f01602080910402602001604051908101604052809291908181526020018280546103c19061158d565b801561040e5780601f106103e35761010080835404028352916020019161040e565b820191906000526020600020905b8154815290600101906020018083116103f157829003601f168201915b5050505050815250508152602001906001019061034e565b50505050905090565b600160009054906101000a900473ffffffffffffffffffffffffffffffffffffffff1673ffffffffffffffffffffffffffffffffffffffff163373ffffffffffffffffffffffffffffffffffffffff16146104bf576040517f08c379a00000000000000000000000000000000000000000000000000000000081526004016104b690611363565b60405180910390fd5b6000600360006101000a81548160ff021916908315150217905550565b60011515600360009054906101000a900460ff16151514610532576040517f08c379a0000000000000000000000000000000000000000000000000000000008152600401610529906113c3565b60405180910390fd5b600115156000803373ffffffffffffffffffffffffffffffffffffffff1673ffffffffffffffffffffffffffffffffffffffff16815260200190815260200160002060009054906101000a900460ff16151514156105c5576040517f08c379a00000000000000000000000000000000000000000000000000000000081526004016105bc906113a3565b60405180910390fd5b60006002826040516105d79190611247565b908152602001604051809103902054905060006004805490501180156105fe575060008114155b1561096a5760005b6004805490508160ff161015610964578160048260ff1681548110610654577f4e487b7100000000000000000000000000000000000000000000000000000000600052603260045260246000fd5b906000526020600020906003020160010154141561095157600160048260ff16815481106106ab577f4e487b7100000000000000000000000000000000000000000000000000000000600052603260045260246000fd5b906000526020600020906003020160000160008282546106cb91906114aa565b9250508190555060016000803373ffffffffffffffffffffffffffffffffffffffff1673ffffffffffffffffffffffffffffffffffffffff16815260200190815260200160002060006101000a81548160ff0219169083151502179055506108c36040518060400160405280600e81526020017f6578697374696e672069642e2e2e00000000000000000000000000000000000081525060048360ff168154811061079f577f4e487b7100000000000000000000000000000000000000000000000000000000600052603260045260246000fd5b9060005260206000209060030201600101546040518060400160405280600781526020017f206e616d653a200000000000000000000000000000000000000000000000000081525060048560ff1681548110610824577f4e487b7100000000000000000000000000000000000000000000000000000000600052603260045260246000fd5b906000526020600020906003020160020180546108409061158d565b80601f016020809104026020016040519081016040528092919081815260200182805461086c9061158d565b80156108b95780601f1061088e576101008083540402835291602001916108b9565b820191906000526020600020905b81548152906001019060200180831161089c57829003601f168201915b5050505050610d6e565b6109506040518060400160405280600881526020017f20766f7465733a2000000000000000000000000000000000000000000000000081525060048360ff1681548110610939577f4e487b7100000000000000000000000000000000000000000000000000000000600052603260045260246000fd5b906000526020600020906003020160000154610cd2565b5b808061095c90611639565b915050610606565b50610cce565b6004604051806060016040528060018152602001600160048054905061099091906114aa565b8152602001848152509080600181540180825580915050600190039060005260206000209060030201600090919091909150600082015181600001556020820151816001015560408201518160020190805190602001906109f2929190610ed5565b505050610b186040518060400160405280600e81526020017f564f54494e47206e616d652e2e2e00000000000000000000000000000000000081525060046001600480549050610a429190611500565b81548110610a79577f4e487b7100000000000000000000000000000000000000000000000000000000600052603260045260246000fd5b90600052602060002090600302016002018054610a959061158d565b80601f0160208091040260200160405190810160405280929190818152602001828054610ac19061158d565b8015610b0e5780601f10610ae357610100808354040283529160200191610b0e565b820191906000526020600020905b815481529060010190602001808311610af157829003601f168201915b5050505050610e10565b610bb36040518060400160405280600f81526020017f564f54494e4720766f7465732e2e2e000000000000000000000000000000000081525060046001600480549050610b659190611500565b81548110610b9c577f4e487b7100000000000000000000000000000000000000000000000000000000600052603260045260246000fd5b906000526020600020906003020160000154610cd2565b610c4e6040518060400160405280600c81526020017f564f54494e472069642e2e2e000000000000000000000000000000000000000081525060046001600480549050610c009190611500565b81548110610c37577f4e487b7100000000000000000000000000000000000000000000000000000000600052603260045260246000fd5b906000526020600020906003020160010154610cd2565b600480549050600283604051610c649190611247565b90815260200160405180910390208190555060016000803373ffffffffffffffffffffffffffffffffffffffff1673ffffffffffffffffffffffffffffffffffffffff16815260200190815260200160002060006101000a81548160ff0219169083151502179055505b5050565b610d6a8282604051602401610ce89291906112d9565b6040516020818303038152906040527f9710a9d0000000000000000000000000000000000000000000000000000000007bffffffffffffffffffffffffffffffffffffffffffffffffffffffff19166020820180517bffffffffffffffffffffffffffffffffffffffffffffffffffffffff8381831617835250505050610eac565b5050565b610e0a84848484604051602401610d889493929190611309565b6040516020818303038152906040527f6c98dae2000000000000000000000000000000000000000000000000000000007bffffffffffffffffffffffffffffffffffffffffffffffffffffffff19166020820180517bffffffffffffffffffffffffffffffffffffffffffffffffffffffff8381831617835250505050610eac565b50505050565b610ea88282604051602401610e269291906112a2565b6040516020818303038152906040527f4b5c4277000000000000000000000000000000000000000000000000000000007bffffffffffffffffffffffffffffffffffffffffffffffffffffffff19166020820180517bffffffffffffffffffffffffffffffffffffffffffffffffffffffff8381831617835250505050610eac565b5050565b60008151905060006a636f6e736f6c652e6c6f679050602083016000808483855afa5050505050565b828054610ee19061158d565b90600052602060002090601f016020900481019282610f035760008555610f4a565b82601f10610f1c57805160ff1916838001178555610f4a565b82800160010185558215610f4a579182015b82811115610f49578251825591602001919060010190610f2e565b5b509050610f579190610f5b565b5090565b5b80821115610f74576000816000905550600101610f5c565b5090565b6000610f8b610f8684611408565b6113e3565b905082815260208101848484011115610fa357600080fd5b610fae84828561154b565b509392505050565b600082601f830112610fc757600080fd5b8135610fd7848260208601610f78565b91505092915050565b600060208284031215610ff257600080fd5b600082013567ffffffffffffffff81111561100c57600080fd5b61101884828501610fb6565b91505092915050565b600061102d83836111d9565b905092915050565b600061104082611449565b61104a818561146c565b93508360208202850161105c85611439565b8060005b8581101561109857848403895281516110798582611021565b94506110848361145f565b925060208a01995050600181019050611060565b50829750879550505050505092915050565b60006110b582611454565b6110bf818561147d565b93506110cf81856020860161155a565b6110d8816116f0565b840191505092915050565b60006110ee82611454565b6110f8818561148e565b935061110881856020860161155a565b611111816116f0565b840191505092915050565b600061112782611454565b611131818561149f565b935061114181856020860161155a565b80840191505092915050565b600061115a60158361148e565b915061116582611701565b602082019050919050565b600061117d60148361148e565b91506111888261172a565b602082019050919050565b60006111a060118361148e565b91506111ab82611753565b602082019050919050565b60006111c3600d8361148e565b91506111ce8261177c565b602082019050919050565b60006060830160008301516111f16000860182611229565b5060208301516112046020860182611229565b506040830151848203604086015261121c82826110aa565b9150508091505092915050565b61123281611534565b82525050565b61124181611534565b82525050565b6000611253828461111c565b915081905092915050565b600060208201905081810360008301526112788184611035565b905092915050565b6000602082019050818103600083015261129a81846110e3565b905092915050565b600060408201905081810360008301526112bc81856110e3565b905081810360208301526112d081846110e3565b90509392505050565b600060408201905081810360008301526112f381856110e3565b90506113026020830184611238565b9392505050565b6000608082019050818103600083015261132381876110e3565b90506113326020830186611238565b818103604083015261134481856110e3565b9050818103606083015261135881846110e3565b905095945050505050565b6000602082019050818103600083015261137c8161114d565b9050919050565b6000602082019050818103600083015261139c81611170565b9050919050565b600060208201905081810360008301526113bc81611193565b9050919050565b600060208201905081810360008301526113dc816111b6565b9050919050565b60006113ed6113fe565b90506113f982826115bf565b919050565b6000604051905090565b600067ffffffffffffffff821115611423576114226116c1565b5b61142c826116f0565b9050602081019050919050565b6000819050602082019050919050565b600081519050919050565b600081519050919050565b6000602082019050919050565b600082825260208201905092915050565b600082825260208201905092915050565b600082825260208201905092915050565b600081905092915050565b60006114b582611534565b91506114c083611534565b9250827fffffffffffffffffffffffffffffffffffffffffffffffffffffffffffffffff038211156114f5576114f4611663565b5b828201905092915050565b600061150b82611534565b915061151683611534565b92508282101561152957611528611663565b5b828203905092915050565b6000819050919050565b600060ff82169050919050565b82818337600083830152505050565b60005b8381101561157857808201518184015260208101905061155d565b83811115611587576000848401525b50505050565b600060028204905060018216806115a557607f821691505b602082108114156115b9576115b8611692565b5b50919050565b6115c8826116f0565b810181811067ffffffffffffffff821117156115e7576115e66116c1565b5b80604052505050565b60006115fb82611534565b91507fffffffffffffffffffffffffffffffffffffffffffffffffffffffffffffffff82141561162e5761162d611663565b5b600182019050919050565b60006116448261153e565b915060ff82141561165857611657611663565b5b600182019050919050565b7f4e487b7100000000000000000000000000000000000000000000000000000000600052601160045260246000fd5b7f4e487b7100000000000000000000000000000000000000000000000000000000600052602260045260246000fd5b7f4e487b7100000000000000000000000000000000000000000000000000000000600052604160045260246000fd5b6000601f19601f8301169050919050565b7f796f75206172656e277420746865206f776e65722e0000000000000000000000600082015250565b7f796f75206172656e277420746865206f776e6572000000000000000000000000600082015250565b7f796f7520616c726561647920766f746564000000000000000000000000000000600082015250565b7f766f74696e6720636c6f7365640000000000000000000000000000000000000060008201525056fea2646970667358221220b818c1aa167fd61b16e39f97b5b807bbef6e3113d2026f9853738976a9e1393764736f6c63430008040033",
  "devdoc": {
    "kind": "dev",
    "methods": {},
    "version": 1
  },
  "userdoc": {
    "kind": "user",
    "methods": {},
    "version": 1
  },
  "storageLayout": {
    "storage": [
      {
        "astId": 6,
        "contract": "contracts/MyContract.sol:MyContract",
        "label": "voters",
        "offset": 0,
        "slot": "0",
        "type": "t_mapping(t_address,t_bool)"
      },
      {
        "astId": 8,
        "contract": "contracts/MyContract.sol:MyContract",
        "label": "owner",
        "offset": 0,
        "slot": "1",
        "type": "t_address"
      },
      {
        "astId": 12,
        "contract": "contracts/MyContract.sol:MyContract",
        "label": "idVotingOption",
        "offset": 0,
        "slot": "2",
        "type": "t_mapping(t_string_memory_ptr,t_uint256)"
      },
      {
        "astId": 14,
        "contract": "contracts/MyContract.sol:MyContract",
        "label": "isVotingOpen",
        "offset": 0,
        "slot": "3",
        "type": "t_bool"
      },
      {
        "astId": 18,
        "contract": "contracts/MyContract.sol:MyContract",
        "label": "votes",
        "offset": 0,
        "slot": "4",
        "type": "t_array(t_struct(votingOption)38_storage)dyn_storage"
      }
    ],
    "types": {
      "t_address": {
        "encoding": "inplace",
        "label": "address",
        "numberOfBytes": "20"
      },
      "t_array(t_struct(votingOption)38_storage)dyn_storage": {
        "base": "t_struct(votingOption)38_storage",
        "encoding": "dynamic_array",
        "label": "struct MyContract.votingOption[]",
        "numberOfBytes": "32"
      },
      "t_bool": {
        "encoding": "inplace",
        "label": "bool",
        "numberOfBytes": "1"
      },
      "t_mapping(t_address,t_bool)": {
        "encoding": "mapping",
        "key": "t_address",
        "label": "mapping(address => bool)",
        "numberOfBytes": "32",
        "value": "t_bool"
      },
      "t_mapping(t_string_memory_ptr,t_uint256)": {
        "encoding": "mapping",
        "key": "t_string_memory_ptr",
        "label": "mapping(string => uint256)",
        "numberOfBytes": "32",
        "value": "t_uint256"
      },
      "t_string_memory_ptr": {
        "encoding": "bytes",
        "label": "string",
        "numberOfBytes": "32"
      },
      "t_string_storage": {
        "encoding": "bytes",
        "label": "string",
        "numberOfBytes": "32"
      },
      "t_struct(votingOption)38_storage": {
        "encoding": "inplace",
        "label": "struct MyContract.votingOption",
        "members": [
          {
            "astId": 33,
            "contract": "contracts/MyContract.sol:MyContract",
            "label": "votes",
            "offset": 0,
            "slot": "0",
            "type": "t_uint256"
          },
          {
            "astId": 35,
            "contract": "contracts/MyContract.sol:MyContract",
            "label": "id",
            "offset": 0,
            "slot": "1",
            "type": "t_uint256"
          },
          {
            "astId": 37,
            "contract": "contracts/MyContract.sol:MyContract",
            "label": "name",
            "offset": 0,
            "slot": "2",
            "type": "t_string_storage"
          }
        ],
        "numberOfBytes": "96"
      },
      "t_uint256": {
        "encoding": "inplace",
        "label": "uint256",
        "numberOfBytes": "32"
      }
    }
  }
}